:100000000C9477020C94BE020C94BE020C94BE02B7
:100010000C94BE020C94BE020C94BE020C94BE0260
:100020000C94BE020C94BE020C94BB2C0C948F2D2D
:100030000C941F1F0C94BE020C94BE020C94BE02C2
:100040000C94BE020C94BE020C94BE020C94BE0230
:100050000C94BE020C946A1F0C94BE020C94BE0257
:100060000C94BE020C94BE020C94BE020C94BE0210
:100070000C94BE020C94BE020C94BE020C94BE0200
:100080000C94BE020C94BE020C94BE020C94BE02F0
:100090000C94BE020C94BE020C94BE020C94BE02E0
:1000A0000C94BE020C94BE020C94BE02AC00A8429A
:1000B000AB00AD00AE00AF00B200B100B341C35C15
:1000C000C25CC45CCB5CCC5CC95CC75CC85C010036
:1000D0000100010001000100010001000100010018
:1000E000010000047F3F1F643214643214783C1E08
:1000F0001E140A052223252628292A2C2D2F3032CA
:10010000333536383A3B3D3E4042434547494A4CF9
:100110004E5051535557595A5C5E60626466686927
:100120006B6D6F71737577797B7D7F81838587892F
:100130008A8C8E90929496989A9C9E9FA1A3A5A734
:10014000A8AAACAEAFB1B3B4B6B8B9BBBCBEBFC160
:10015000C2C3C5C6C7C9CACBCCCDCED0D1D2D2D3EB
:10016000D4D5D6D7D7D8D9D9DADADBDBDBDCDCDCFF
:10017000DCDCDDDDDDDDDCDCDCDCDCDBDBDBDADAC2
:10018000D9D9D8D7D7D6D5D4D3D2D2D1D0CECDCC39
:10019000CBCAC9C7C6C5C3C2C1BFBEBCBBB9B8B64E
:1001A000B4B3B1AFAEACAAA8A7A5A3A19F9E9C9AD9
:1001B00098969492908E8C8A89878583817F7D7BA7
:1001C00079777573716F6D6B6968666462605E5C88
:1001D0005A5957555351504E4C4A4947454342404E
:1001E0003E3D3B3A3836353332302F2D2C2A2928E4
:1001F00026252322FFAA7F554000010101010101AC
:1002000001010102020202020202020203030303CD
:10021000030303030404040404040405050505059D
:10022000060606060607070707070808080809095B
:1002300009090A0A0A0B0B0B0C0C0C0D0D0D0E0E06
:100240000E0F0F0F10101111111212131314141599
:100250001516161717181819191A1A1B1B1C1D1D0D
:100260001E1E1F2020212222232424252626272863
:1002700029292A2B2C2D2D2E2F3031323233343593
:10028000363738393A3B3C3D3E3F40414243444596
:10029000464748494A4C4D4E4F5051535455565875
:1002A000595A5B5D5E5F616264656668696B6C6D1F
:1002B0006F7072737577787A7B7D7E808283858795
:1002C000888A8C8E8F91939596989A9C9EA0A2A3D3
:1002D000A5A7A9ABADAFB1B3B5B7BABCBEC0C2C4D8
:1002E000C6C9CBCDCFD1D4D6D8DBDDDFE2E4E7E998
:1002F000EBEEF0F3F5F8FAFDFF0403300000001C0C
:10030000034E006F006F0064006C00650020005019
:10031000006100640020007600310000001E0354DC
:10032000006800650020004D006100640020004E60
:10033000006F006F0064006C00650000000403099A
:100340000409029F00040100A0FA0904000001034F
:10035000010100092111010001224000070581036C
:1003600008000A090401000103000000092111012D
:10037000000122BC000705820320000A080B0202CC
:10038000010100000904020000010100000924012C
:100390000001090001030904030002010300000732
:1003A000240100014100062402010100062402028A
:1003B00002000924030103010201000924030204CD
:1003C00001010100090504024000050000052501A6
:1003D0000101090583024000050000052501010314
:1003E0001201100100000008EDFE011701000102DA
:1003F000030105010902A10185020901A100050906
:100400001901290515002501950575018102950140
:10041000750381010501093009311581257F950298
:100420007508810609381581257F950175088106B3
:10043000050C0A38021581257F950175088106C0D3
:10044000C005010980A101850319012AB700150122
:1004500026B700950175108100C0050C0901A101A6
:10046000850419012AA002150126A0029501751024
:100470008100C005010906A1018505050719E029CC
:10048000E715002501950875018102050719002966
:10049000EF1500250195F075018102050819012964
:1004A00005950575019102950175039101C005013E
:1004B0000906A101050719E029E71500250195089E
:1004C000750181029501750881010507190029FF51
:1004D000150026FF009506750881000508190129F9
:1004E00005950575019102950175039101C01124CF
:1004F0001FBECFEFDAE0DEBFCDBF04B603FE27C0DC
:100500008091E8039091E903A091EA03B091EB0395
:100510008730904BA740B04BD1F41092E803109273
:10052000E9031092EA031092EB0314BE84B7877FAD
:1005300084BF0FB6F894A89580916000886180937D
:100540006000109260000FBEE0E0F8E3099511E052
:10055000A0E0B1E0EEE3F0E602C005900D92AE3D02
:10056000B107D9F723E0AEEDB1E001C01D92A83E7E
:10057000B207E1F70E9497290C94D42F0C94000045
:10058000CF93C62F6091430270914402809145023F
:10059000909146020E94FF1C813039F0823069F050
:1005A00089EAC1110EC08AEA0CC0CC2319F0CF91A0
:1005B0000C94F50ACF910C94020B8FE4C11101C089
:1005C00080E5CF910C940914CF93DF939C013A9569
:1005D00021153F4168F5EC01CC27D170DC01AA2739
:1005E000B270AC01442754709C012227387094FFEC
:1005F00011C080E1CD2B09F480E0AB2B09F08062C3
:10060000452B09F08064232B09F08068FB01DF9102
:10061000CF91099481E0CD2B09F480E0AB2B09F058
:100620008260452B09F08460232B81F38860EECF34
:10063000DF91CF910895CF93DF93EC01805E910914
:10064000089720F069EA76E1209711F46CE174E1F3
:10065000CE010E94E4028C2FDF91CF910C948C1379
:10066000CF93DF93EC010E94DA13CE01805E9109F3
:10067000089720F060EB76E1209711F463E274E1D3
:10068000CE01DF91CF910C94E402CF93DF93EC0184
:100690000E941B03CE01DF91CF910C94300381E0C7
:1006A000089581E008950C94510308950C94550326
:1006B0001F93CF93DF9300D000D00F92CDB7DEB75A
:1006C00049835A836B833091000289819A81311169
:1006D0001DC06623B9F02223A9F00E94B81B182F71
:1006E000682F89819A810E94631B69817A81812F99
:1006F0000F900F900F900F900F90DF91CF911F915F
:100700000C9428040E94901B182FEFCF0E94B81B56
:1007100069817A81EDCFFC01262F40815181628170
:10072000738184810C945803CF93DF93EC0160E0D4
:100730000E948B03BE01DF91CF910C9456030E945F
:100740004C1D811102C00E94EE1D0E942D0F0E94BF
:10075000930F0C9434060E943C0F0C943706282FFC
:100760002F7041F0822F90E02A3010F44D960895BA
:100770000697089587E290E0089508950C94BD03CC
:1007800081E008950C94C003CF93C82F0E94BE034C
:100790008C2FCF910C94C20308950E94CD160E9415
:1007A000CC032FEF84E39CE0215080409040E1F7A0
:1007B00000C000000C948E1F0F931F93CF93DF9304
:1007C000EC0161E00E948B038C01BE010E94530387
:1007D000882389F1BE01C8010E940A10882359F1BB
:1007E000BE01C8010E94AC10882329F1BE01C801D6
:1007F0000E94ED108823F9F0BE01C8010E9410127A
:100800008823C9F0BE01C8010E947C0E882399F09C
:100810008A81882339F001158CE5180751F00E3DC7
:100820001C4579F0CE01DF91CF911F910F910C946F
:100830004F030E94CD0380E0DF91CF911F910F9174
:1008400008950E94EE1DF7CF90E080E0089508958E
:10085000972F70E023E0929F600D711D1124FB0122
:1008600099E0899FE00DF11D1124EE0FFF1FE45563
:10087000FF4F859194910895FC01EE0FFF1FEE51FB
:10088000FF4F859194910895CF93DF930E942804A0
:100890000E945905EC01811520E5920708F042C03D
:1008A000811530E4930708F0BDC0883E910528F516
:1008B000803E910508F09DC0883A910588F4853AFC
:1008C000910508F08FC08130910509F492C000971E
:1008D00009F48FC0049708F08CC0D0E0C0E089C054
:1008E0008F3B910508F489C0805C9109C03CD1051B
:1008F000A0F30E943C04EC017CC08115904250F4AE
:10090000C11581E0D80708F074C0C03FD10528F3B5
:10091000D0656FC0C11590E3D90708F079C0CE014A
:100920009F70E7CF811525E5920758F5811534E5CD
:10093000930708F0A6C0811542E5940750F4C1154D
:1009400081E5D80708F471C0DC2FCC27C16FD06ACD
:1009500050C0982F969596959E0123703327C11508
:10096000D34508F07FC0C1E0D0E002C0CC0FDD1F4E
:100970002A95E2F720E2929FC0011124C82BD92BBF
:100980006FC0C11589E5D807A8F4C11598E5D90746
:1009900008F07CC0C11526E5D20708F09ECF8C2F49
:1009A0000E94F005C82FD0E0DC2FCC27CC27DF71C8
:1009B000D0621FC0C1153AE5D30708F46CC0CE0160
:1009C00090568115904208F088CF8D2F8F710E942C
:1009D000F00590E0982F882788279F719C012C2B89
:1009E000E901E6CFC55AD0E0C15ADE4FC881D0E058
:1009F000D064CE01DF91CF910895C85AD0E0CC0FDA
:100A0000DD1FCF5CDE4F0990D881C02DD464F1CFBB
:100A1000CE019927D3FF03C0EC01D86CEACFEC01DB
:100A2000D06CE7CFDF70D06AE4CFCE01E4E09695DA
:100A30008795EA95E1F783702C2F269526952370EC
:100A400090E2299F90011124382B8C2F8370C1E0F4
:100A5000D0E002C0CC0FDD1F8A95E2F7C22BD32B6A
:100A6000DC68C7CFC1E0D0E002C0CC0FDD1F2A9503
:100A7000E2F730E2939FC0011124C82BD92BDA682A
:100A8000B8CFD82FCC27C46FD06AB3CFDC2FCC27F8
:100A9000C06FD06AAECF8C2F8F700E94F00534E00B
:100AA000D695C7953A95E1F7CF709C2FEC01D069A8
:100AB000A0CF82389105B1F1B0F48133910509F4EA
:100AC00075C048F48932910509F469C08A329105EC
:100AD00009F473C008958533910509F459C0893329
:100AE000910501F10895833E9105A9F138F4803E06
:100AF0009105F9F0823E910549F10895863E9105F0
:100B0000A9F1873E9105C9F1843E910519F520911F
:100B1000ED0221FF1FC08091EC0284FD14C087EE1E
:100B200090E008952091EC022370A1F080EE90E017
:100B300008952091EC0220FD47C03091ED0230FF76
:100B400009C024FF44C090E080E004C02091EC0282
:100B500022FDF7CF08952091EC0222FD3BC0309199
:100B6000ED0230FDE3CF24FFF5CFEDCF2091EC0275
:100B700023FFF0CF24FDE7CFD2CF2091EC0223FD5D
:100B80002CC03091ED0231FFEECF84EE90E008955D
:100B90002091EC0225FFDECF89E290E008952091BC
:100BA000EC0225FFD7CF85E390E008952091EC0279
:100BB00026FFD0CF8AE290E008952091EC0226FF34
:100BC000C9CF81E390E0089589E390E0089583EE32
:100BD00090E0089582EE90E0089586EE90E008950A
:100BE0009091EC0292FF06C0282F28712830F9F46A
:100BF000877F846093FF06C0282F28712831F1F485
:100C0000877E84612091ED0220FF06C0382F387165
:100C10003830D9F4877F816021FF06C0282F2871E2
:100C20002831D1F4877E816194FD877E0895282F35
:100C300024712430F9F68B7F8860DCCF282F247153
:100C4000243101F78B7E8861DDCF382F317131304F
:100C500019F78E7F8860E0CF282F2171213121F78D
:100C60008E7E8861E1CF08950C94330608950C942C
:100C70003606E82FF0E0E353FD4F80810895089594
:100C800080EA8A95F1F70895CF93DF93A2E6B1E069
:100C900045E651E0C1E0D0E08D91E82FE295EF709C
:100CA000F0E061A18F709E0101C0220F8A95EAF7E2
:100CB000922F9095962391A382A1822B82A34A170B
:100CC0005B0751F7A5E6B1E048E651E0C1E0D0E0AE
:100CD0008D91E82FE295EF70F0E061A18F709E0199
:100CE00001C0220F8A95EAF7922F9095962391A33F
:100CF00082A1822B82A34A175B0751F71092CA0286
:100D00001092CD021092CB021092CE021092CC0221
:100D10001092CF0283E00E942E07DF91CF910C94B6
:100D20009F036F927F928F929F92AF92BF92CF92CA
:100D3000DF92EF92FF920F931F93CF93DF9322E600
:100D4000C22E21E0D22ED0E0C0E0B12C01E010E0B4
:100D50003DECE32E32E0F32ED6018D916D01E82FAC
:100D6000E295EF70F0E021A18F70A80102C0440F5E
:100D7000551F8A95E2F7CA01922F982B91A392A151
:100D80008095892382A30E944006C8010C2E01C0D1
:100D9000880F0A94EAF7A82E382F3095EAECF2E093
:100DA00095E6692E91E0792E60E0AF017081D30164
:100DB0002D913D01822E82948FE08822912CD401C6
:100DC00090968C9190E02F7002C0959587952A950A
:100DD000E2F780FD40C08A2D872B80833196DA01AF
:100DE0008C91781361E0EE16FF06F9F6F601319763
:100DF0008081E82FE295EF70F0E041A18F709801BB
:100E000001C0220F8A95EAF7922F9095942391A31F
:100E100082A1822B82A3B62A2196C330D10509F084
:100E20009BCF2B2D43E06DEC72E08AEC92E00E94A8
:100E30002F070E94AB038B2DDF91CF911F910F9154
:100E4000FF90EF90DF90CF90BF90AF909F908F90EA
:100E50007F906F900895832F8723BFCF0895FF92CF
:100E60000F931F93CF93DF93F82E092F162FD72FB1
:100E7000C42F222349F081E08093E0010E944F1F9C
:100E80009093DF018093DE018091E0018823A1F03F
:100E90008091DE019091DF010E945B1F069760F058
:100EA000EF2DF02FA12FBD2FCE0FDF2FD11DEC176F
:100EB000FD0741F41092E001DF91CF911F910F9156
:100EC000FF90089581918D93F2CFEF92FF920F934F
:100ED0001F93CF93DF93CDB7DEB7AC970FB6F894DF
:100EE000DEBF0FBECDBF962FBA012132310598F576
:100EF00040EF49831A821B821C82790142E0E40E92
:100F0000F11C0CE210E00E191F09E1E0F0E0EC0F1B
:100F1000FD1F0E0F1F1FF80180839183A901C801D7
:100F200002960E94832FA701B801CE0105960E9468
:100F30008425E5E0F0E0EC0FFD1FE80FF91F27EF37
:100F40002083BC016B5F7F4FAE014F5F5F4F8EEE22
:100F500092E00E949922AC960FB6F894DEBF0FBEC5
:100F6000CDBFDF91CF911F910F91FF90EF9008952A
:100F70000E946F2FFA0160837183828393830895A7
:100F8000FC01E60FF11D608170E090E080E0962F9B
:100F90008827772766272381622B2181822B228154
:100FA000722B089581E008950C94D2070C94D40715
:100FB000EF92FF920F931F93CF93DF9300D000D057
:100FC000CDB7DEB7F82EE92E8B010E94D607882315
:100FD000A9F0D8018C918233E0F4803378F4813128
:100FE00069F040F4803179F12F2D3E2DA80160E0A9
:100FF00080E846C08032A1F08132B1F70F900F90A7
:101000000F900F90DF91CF911F910F91FF90EF9074
:101010000895803448F3823488F3803829F7EECF7E
:10102000F80181818430D1F08630E9F0823059F4C2
:1010300082810E945F1DD80112966C9170E090E051
:1010400080E00E94651AD8011196EC91E150ED30D4
:10105000A8F6F0E0EA52F04D0C94692F828190E0FE
:101060000E94721DF0CF62E0C8010E94C0070E947A
:101070005509E9CF30E020E050E040E061E081E157
:101080000E946507BBCF82E090E00E948C2F89838D
:1010900021E030E0AE014F5F5F4F68E0F0CF83E0CA
:1010A00090E00E948C2F898321E030E0AE014F5FF9
:1010B0005F4F62E0E4CF60914302709144028091FF
:1010C000450290914602AE014F5F5F4F0E94B80704
:1010D00024E030E0AE014F5F5F4F63E0D0CF30E0FF
:1010E00020E050E040E069E0CACF30E020E050E08E
:1010F00040E065E0C4CF0E945109AE014F5F5F4FF1
:101100000E94B80724E030E0AE014F5F5F4F66E019
:10111000B6CF0E94641D898321E030E0AE014F5FAD
:101120005F4F64E0ACCF83E089838A8322E030E0C4
:10113000AE014F5F5F4F6DE0A2CF8EEE92E00C9458
:10114000C624AF92BF92CF92DF92FF920F931F936C
:10115000CF93DF93362F472FE82FF0E0E750FE4F75
:1011600071110DC06491762F862FDF91CF911F9161
:101170000F91FF90DF90CF90BF90AF900895C72F51
:10118000D0E02491F22E022F10E056E0659FC001BE
:101190001124EFEFF0E0BF010E94412F832F90E078
:1011A000880F991F35E5369FD001379FB00D112468
:1011B0008A1B9B0B982F990F980F6F01CC1ADD0A91
:1011C000C09ED001C19EB00DD09EB00D11248B2FBA
:1011D000949FA0011124452F55276F01C41AD50AE9
:1011E000C09EA001C19E500DD09E500D11245F01E4
:1011F000A91AB108AC9E6001AD9ED00CBC9ED00C6B
:101200001124CD2CDD24EC19FD09E09FE001E19FC4
:10121000D00DF09FD00D1124ED2F62307105A1F09B
:1012200048F46115710569F06130710589F0EB2FA3
:10123000852F07C06430710571F088F06630710544
:10124000B1F76E2F722F91CFE22F2B2F8D2FF9CF69
:10125000E22F252FF6CFEB2F822F2D2FF2CF2B2F22
:101260008F2DE52FEECF0895CF93DF93762FE901F1
:10127000682F842F0E94A108798368838A83DF9175
:10128000CF9108958091D002982F9E7F29F481708C
:1012900082608093D00208958A34E8F38170886474
:1012A000F8CF88E090E00C94942FCF92DF92EF92E9
:1012B000FF926B017C010E944209B701A60188E000
:1012C00090E0FF90EF90DF90CF900C94B22FE0ED84
:1012D000F2E083E0808311828FEF82838383148224
:1012E00060817181828193810C9455098091D00233
:1012F00080FF02C08695089580E008958091D40211
:10130000833018F48F5F8093D4026091D002709183
:10131000D1028091D2029091D3020C945509809110
:10132000D402882319F081508093D4026091D002B6
:101330007091D1028091D2029091D3020C94550900
:101340006091040170E08091D00280FF0AC080911A
:10135000E50123E0829FC00111248B529D4F0C9424
:10136000280F8091E4019091030123E0829FF00116
:101370001124EB52FD4F891750F71182108212820F
:101380008F5F3396F8CF9091D00290FF14C0909168
:10139000E4012091030133E0939FF0011124EB520B
:1013A000FD4F921710F00C94A00981836083428353
:1013B0009F5F3396F6CF0895CF93DF9300D00F92BF
:1013C000CDB7DEB79091D00290FF0AC09E012F5F8B
:1013D0003F4F0E9434094B8169818A810E94C30971
:1013E0000F900F900F90DF91CF910895CF93DF93DF
:1013F000EC01EC81F0E0EC50FF4F4491E0EDF2E0C5
:10140000628181810E94DC098C818F5F8C83DF91F6
:10141000CF910895CF93DF93EC01E0EDF2E04381AB
:1014200062818C810E94DC098C818F5F8C83DF91CB
:10143000CF9108950F931F93CF93DF9300D00F9216
:10144000CDB7DEB78C018091E10181110AC09E0108
:101450002F5F3F4F4FEF6FEF0E9434098A818093D7
:10146000E101F8016481613069F08091E10140E0BF
:10147000662361F040E0623011F44091E10180E0C8
:1014800060E004C06091E10140E080E00E94C30997
:10149000F801848190E0019663E070E00E94552F8E
:1014A00084830F900F900F90DF91CF911F910F9138
:1014B0000895AF92BF92CF92DF92EF92FF920F9377
:1014C0001F93CF93DF9300D00F92CDB7DEB7182FC5
:1014D000F62E042FE22E9091D00290FF29C0E92F22
:1014E000E695AE2FB0E0A859BE4F8C918093ED01E8
:1014F0009E7F923059F59E012F5F3F4F812F0E94B2
:1015000034094B8169818A810E94C3091093D102F9
:10151000F092D2020093D302EE2051F06091D002FB
:101520007091D1028091D2029091D3020E9455090C
:101530000F900F900F90DF91CF911F910F91FF901F
:10154000EF90DF90CF90BF90AF900895823019F464
:101550000091D302DBCF863019F41091D102D6CF9F
:101560008930D9F3893191F6E9518E2F8170D82EC7
:10157000E695F0E0EC50FE4FA590B490C12CBB2452
:1015800060910201C61618F00E94A009BFCF2C2D51
:1015900030E0A29EC001A39E900DB29E900D11243A
:1015A00070E00E94412F812FD11013C0860F40910F
:1015B000E401420F532F511D9A01220F331F240FB4
:1015C000351F2B523D4F402F6F2D0E943409C3947D
:1015D000D7CF861BECCFE0EDF2E09181282F43813D
:1015E000628188E0890F0C94590A81E00C94EB0A1F
:1015F000E0EDF2E09181282F4381628188EF890F2D
:101600000C94590A81E00C94F80AE0EDF2E0628152
:1016100021E1620F08F46FEF282F438181810C9440
:10162000590A81E00C94050BE0EDF2E0628121E1C2
:10163000621B08F460E0282F438181810C94590AD1
:1016400081E00C94140BE0EDF2E0438121E1420FC4
:1016500008F44FEF282F628181810C94590A81E0B0
:101660000C94230BE0EDF2E0438121E1421B08F4EE
:1016700040E0282F628181810C94590A81E00C940A
:10168000320B20E00C94590AEF92FF921F93CF93F4
:10169000DF93EC0110E0EE24EA94F12C609102015A
:1016A000161770F00E94A0099A818C8190FF27C0C4
:1016B0008F5F8C83DF91CF911F91FF90EF90089502
:1016C0002091E401422F410F5527551FCA019A016D
:1016D000220F331F280F391F2B523D4F70E0C701D7
:1016E0000E94552F962F8C814091D3026091D20297
:1016F000199F800D11240E9434091F5FCFCF8150A4
:10170000D8CFBF92CF92DF92EF92FF920F931F93A9
:10171000CF93DF93FC0182810FEF80FF01E010E0A7
:10172000809102011817C0F00E94A0098091E30186
:10173000013009F051C0811102C080910201815035
:101740008093E301DF91CF911F910F91FF90EF9074
:10175000DF90CF90BF900895C091E401C12ED12CAD
:10176000CC0DDD2DD11DCE01880F991FC80FD91FBB
:10177000CB52DD4F198218821A8234E0E32EF12C0D
:10178000B12C8091E3018B0D853004F18370082E1C
:10179000000C990BC816D90691F48091D3028E9D46
:1017A000A0018F9D500D112455954795559547954E
:1017B0009E016091D2028091D1020E943409B00E44
:1017C000F1E0EF1AF108E9F61F5FAACF87FFDFCF3C
:1017D00090910201890FDBCF90E0019660910201A8
:1017E00070E00E94552FACCF0F931F93CF93DF93E0
:1017F0008091E4019091030123E0829FF001112484
:10180000EB52FD4F891740F1C0E0D3E06091020137
:10181000C61740F10E94A009209100018091E201C9
:10182000820F8093E20190910101920F9093010148
:10183000191654F4082E000C990B409102014150E6
:10184000550B841795071CF0219520930001DF911B
:10185000CF911F910F9108951182108212828F5F94
:101860003396D0CF0C2F10E070E0C8010E94552FA6
:101870002091E401820F482F50E02091E201022ED6
:10188000000C330B02171307BCF020910101022E4C
:10189000000C330B201731077CF08D9F9001112431
:1018A0002B523D4F4091D3026091D2028091D102E0
:1018B0000E943409CF5FAACFFA01EE0FFF1FE40F99
:1018C000F51FEB52FD4F118210821282F3CF0F935E
:1018D0001F93CF93DF938C01FC0184819581019646
:1018E0008170992795838483C0E0D5E580910201BA
:1018F000C81730F0DF91CF911F910F910C94A00980
:101900002091E401422F4C0F5527551FCA019A011F
:10191000220F331F280F391F2B523D4F8C2F8695D6
:10192000F80144815581840F952F911D817040915C
:10193000D3026091D2028D9F802D11240E94340920
:10194000CF5FD4CF0F931F93CF93DF93EC0110E0C1
:1019500000E0909102019017110609F06CF40E94CA
:10196000A0098C8190E00196817099278C83DF918A
:10197000CF911F910F9108952091E401A801420F8A
:10198000511D9A01220F331F240F351F2B523D4F3B
:101990004C816091D2028091D102969590171106E8
:1019A00051F04CF0442349F04091D3020E94340995
:1019B0000F5F1F4FCECF4423B9F340E0F7CFE0EDE8
:1019C000F2E080818E7F808360817181828193814A
:1019D0000E9455091092EE012FEF80E792E021500E
:1019E00080409040E1F700C000000C94A009E0EDB9
:1019F000F2E080818E7F80831092EE012FEF80E7EE
:101A000092E0215080409040E1F700C000000C942B
:101A1000A0096091D002669570E04BE050E085E04F
:101A200091E00E94762F892B19F481E08093EE01DA
:101A30000E944F1F9093E7018093E60108959091D3
:101A4000D00290FF35C09170811128C092609093B0
:101A5000D002662351F06091D0027091D102809142
:101A6000D2029091D3020E9455096091D0026695EE
:101A700070E04BE050E085E091E00E94762F892BEA
:101A8000A1F01092EE0181E08093E9014091D30230
:101A90006091D2028091D1020C94410B853210F0FA
:101AA0009864D5CF880F982BD2CF0E94090DEBCF29
:101AB0000895682F9091D002969581E0890F853224
:101AC00008F081E00C941F0D81E00C94590D682FF3
:101AD0009091D00296958FEF890F09F484E20C94CF
:101AE0001F0D81E00C94670D61E00C941F0DE0ED7B
:101AF000F2E080818160808386950C94740D8091E2
:101B0000D00280FD0C94DF0C0C94770D60E00C94F7
:101B10001F0D8091EC0181112EC00E944C1D81117E
:101B200004C00E94EE1D0E9467090E945109609343
:101B3000D0027093D1028093D2029093D3026E7F31
:101B400061F40E9467090E9451096093D00270936A
:101B5000D1028093D2029093D3020E944209109244
:101B6000EE018091D00280FF03C086950E94860D11
:101B700081E08093EC010895E0EDF2E080818160E6
:101B8000808386950C94860D1092EE0108950F9334
:101B90001F93CF93DF938091EE01882309F48DC0CA
:101BA0008091ED01E091D002E695E81BE093E80119
:101BB0008230C9F5F0E0E051FF4FE491CE2FD0E044
:101BC00006EF19E08091E901882389F01092E9017C
:101BD0000E944F1F9E0120953095820F931F909376
:101BE000E7018093E6011092EB011092EA018091E7
:101BF000E6019091E7010E945B1F8C179D0708F496
:101C00005CC0E091E601F091E701CE0FDF1FD093B9
:101C1000E701C093E60186EE91E0F801DF91CF91F4
:101C20001F910F910994863049F4F0E0E351FF4F82
:101C3000E491CE2FD0E00AE01AE0C4CF893051F40D
:101C4000E695F0E0E651FF4FE491CE2FD0E004E4BA
:101C50001BE0B8CF8F3051F4E695F0E0E951FF4F2B
:101C6000E491CE2FD0E001E81BE0ACCF853149F400
:101C7000F0E0EC51FF4FE491CE2FD0E004EF1BE0F9
:101C8000A1CFC8EED3E007E61CE0883109F49ACF73
:101C9000833239F4E2EEF0E0C591D4910AE11AE022
:101CA00091CFC4EFD1E002EA1CE0843209F48ACF7C
:101CB000C0EDD7E003E319E085CFDF91CF911F910D
:101CC0000F910895FA01811101C0FB010994CF938E
:101CD000DF93C82FD62F0E9476098C1740F00E9400
:101CE00076098D1720F4DF91CF910C94640D8C2F21
:101CF000DF91CF910C94740D0F931F93CF938C01B0
:101D0000FB01C281CC2309F465C00E944D1C827284
:101D1000F801E25CFC45E431F10538F4ED51F04D99
:101D20000C94692F0E947F0DC0E08C2FCF911F91E2
:101D30000F91089541E75DE064E67DE00E94620E48
:101D4000F3CF44E65DE061E77DE0F8CF42E05BE0A1
:101D500065EF7AE0F3CF45EF5AE062E07BE0EECF4B
:101D600040E25BE061E17BE0E9CF41E15BE060E222
:101D70007BE0E4CF4EE35BE06FE27BE0DFCF4FE25E
:101D80005BE06EE37BE0DACF4FE859E06EE779E0A5
:101D9000D5CF4EE759E06FE879E0D0CF81E00E94DF
:101DA000740DC2CF65E082E00E94670EBDCF68E08F
:101DB00086E0FACF6EE089E0F7CF64E18FE0F4CF00
:101DC00067E185E1F1CF88E1EACF62E289E1ECCF1A
:101DD00083E2E5CFC1E0A9CF24B1342F3F70A1E069
:101DE000B0E001C0AA0F3A95EAF72A2B24B9429530
:101DF0004F70E42FF0E022A14A2F4095422332A1F8
:101E0000A32B5FB7F8949B01220F331F260F371FB8
:101E1000280F391F2817390741F45FBF87EC90E07E
:101E20000197F1F700C000000895FC016191CF0116
:101E300078E0A5B9000000C067FF45B9660F000053
:101E400000C000C000C045B900C07A9591F7E2CF4C
:101E500047E30C94EC0E0C94C0025098589A519899
:101E6000599A89B18170499905C090E0892B809376
:101E7000F101089592E0FACFE091F101EE0FEE0F3B
:101E8000E093F10149B1842F817049B141FB2227D0
:101E900020F941FF02C022E030E0822BE82BE093E2
:101EA000F101EF70F0E0E357FE4F80819091F00177
:101EB000890F8093F00184304CF08091EF018F5FA7
:101EC0008093EF0160E080E00E942B0F8091F00191
:101ED0008D3F4CF48091EF0181508093EF0161E0E0
:101EE00080E00E942B0F8091F001837887FF03C070
:101EF00081508C6F8F5F8093F0010895CF93DF93B3
:101F0000EC0197FF0CC0FB018281882341F00E9405
:101F1000A90FCE019F770E94ED0F0E94D50F81E09F
:101F2000DF91CF9108958CE090E00E948C2F90E09B
:101F3000B0E0A0E08093E1029093E202A093E3027C
:101F4000B093E40208956091E1028CE090E00C947B
:101F5000A02F0E944D1C8093E5020E94601C80917E
:101F6000E102813089F0882359F0823091F0843089
:101F7000B9F08FE39CE90197F1F700C000000895E4
:101F800082EE0E948C13F5CF88E193E00E94450316
:101F9000F0CF82EE0E948C1387E50E940914E9CFEE
:101FA00086EE0E94091488E1F8CF8091E102813029
:101FB00071F0882341F0823031F0843061F08091FB
:101FC000E5020C945D1C82EE0E94DA13F8CF8CE2DD
:101FD0000E940914F4CF88E2FBCF0F931F93CF9395
:101FE000DF938C01CCE0D0E0C8010C2E02C09695A6
:101FF00087950A94E2F78F700E94AF030E9409143C
:102000002497CC3F8FEFD80779F7DF91CF911F91BD
:102010000F9108950F931F93CF93DF93EC018B01E2
:10202000FB018281882371F0C33EFCE5DF0719F1D3
:1020300088F4C13EECE5DE07C9F081E0C23EFCE574
:10204000DF0789F0B801CE01DF91CF911F910F9189
:102050000C947E0FC43E8CE5D80779F084E0C53E31
:10206000ECE5DE0779F78093E10202C01092E1020D
:102070000E94A30FE7CF82E0F6CF83E0F4CF0F9367
:102080001F93CF93DF93C62FD42F022FFC018281A1
:102090008823C9F06093F4010E944F1F9093F301CD
:1020A0008093F20180E28C0F883008F050C0C77036
:1020B00081E001C0880FCA95EAF7DF91CF911F91A7
:1020C0000F910C941C141091F401161335C08091DB
:1020D000F2019091F3010E945B1F883C910560F52D
:1020E000C0E2CD0F1D17B9F080E2810F883040F4B7
:1020F000177081E001C0880F1A95EAF70E94231437
:10210000C83048F481E09D2F977001C0880F9A95E0
:10211000EAF70E941C14802F0E940914C830B8F4FA
:10212000D77081E001C0880FDA95EAF7DF91CF918F
:102130001F910F910C94231480E28C0F883038F497
:10214000C77081E001C0880FCA95EAF7EFCFDF9131
:10215000CF911F910F9108959C01CB01233F4CE536
:10216000340731F190F4283DFCE53F07E9F0293DC3
:102170004CE5340769F1273D3C4579F426E241EE10
:1021800061EE0E943F1080E00895253FFCE53F0787
:10219000B9F090F0263F3C45B9F0FC0182818823DC
:1021A000D1F01092F401089527E245EE65EEE9CFF3
:1021B00026E241EE60EEE5CF27E245EE64EEE1CFA8
:1021C00026E241EE62EEDDCF27E245EE66EED9CFA4
:1021D00028E241E0EBCF81E00895CF93DF93EC015B
:1021E000FB018281882309F419C1C230FCE5DF07B5
:1021F000C0F1C6319CE5D90730F09E012A5F3C450D
:102200002930310570F50E94641D9093ED02809392
:10221000EC02C031ECE5DE0709F4CFC008F05BC08A
:10222000C8308CE5D80709F4B6C088F5C430ECE5B1
:10223000DE0709F4A8C0C0F4C2308CE5D80709F461
:102240009CC08091EC028260C330DC4509F498C0E8
:102250008091EC029091ED020E94721D0E94CD16B9
:1022600080E0DF91CF9108958091EC028061C630CB
:10227000ECE5DE0709F484C08091EC028860C73089
:10228000DC4508F47DC08091EC02806279C0CC30DE
:102290008CE5D80709F489C070F48091EC028C6059
:1022A000CA30ECE5DE0709F46BC008F478C0809111
:1022B000EC028E7F65C0CE308CE5D80709F479C07A
:1022C0008091EC028B7FCF30DC4508F459C08091BF
:1022D000EC028F7E55C0CB3FECE5DE0709F457C01A
:1022E00030F5C3318CE5D80709F46FC078F4C131FB
:1022F000ECE5DE0709F465C0C231DC4509F0A8CF82
:102300000E94CD168091EC028F773AC0C5318CE5E2
:10231000D80709F462C008F476C08091ED028160AC
:10232000CA3FDC4509F094CF8093ED0291CFCF3FB7
:10233000FCE5DF0709F44DC088F48091ED028D7F44
:10234000CD3F9CE5D90781F38091ED028E7FCE3F92
:10235000DC4550F38091ED028360E6CFC130FDE5AE
:10236000DF0709F459C008F444C080E0C230DD45FD
:1023700009F06ECF0E94F01D6BCF8091EC0281605E
:102380008093EC0265CF8091EC028460F9CF80915C
:10239000ED028260C9CF8091EC028064F1CF0E948F
:1023A000CD168091EC028068EBCF8091EC028D7F9E
:1023B000E7CF8091EC02877FE3CF8091EC028F7DA5
:1023C000DFCF8091EC028F7BDBCF8091EC02837FAB
:1023D000D7CF8091ED028C7FA7CF8091EC0282FB5A
:1023E000992790F921E0922790FB82F990FB83F9DD
:1023F000C7CF8091ED02982F909591708E7F892B99
:1024000090FB81F991CF0E94CD169091EC02892F1B
:1024100097FB87F98058B4CF81E0ACCF81E021CF22
:10242000CF93DF93EB0186319C4511F50E944D1C43
:102430009A81992399F08A7A91E009F490E0909337
:10244000F501811109C089E20E94281C0E949C1C90
:1024500080E0DF91CF91089585E3F6CF8091F5017B
:10246000811104C089E20E942F1CF0CF85E3FBCFCD
:1024700081E0EFCF9093FB018093FA010895E09102
:10248000FA01F091FB01309721F00190F081E02DED
:10249000099480E00895E091FA01F091FB013097F2
:1024A00099F020913001222359F02091EC0227FF6E
:1024B00007C0DC012C9111962C93119725E02C93E9
:1024C0000280F381E02D09940895E091FA01F091E2
:1024D000FB01309739F022E0DC012C930480F58178
:1024E000E02D099408952091F8013091F901281701
:1024F000390771F09093F9018093F801E091FA01A6
:10250000F091FB01309721F00680F781E02D0994CE
:1025100008952091F6013091F7012817390771F0DD
:102520009093F7018093F601E091FA01F091FB019D
:10253000309721F00084F185E02D0994089585B746
:10254000806885BF85B7806885BF08950895089520
:102550000C94A61208950C94AA120E949F120E9435
:10256000A7120C94A81281E008950E94461F0E94B1
:1025700044060E94B21F0E94890D0C94AB12AF92C8
:10258000BF92CF92DF92EF92FF920F931F93CF9360
:10259000DF93CDB7DEB72A970FB6F894DEBF0FBE34
:1025A000CDBF0E9491060E94B312882309F463C034
:1025B0008DEFA82E81E0B82E10E000E0C02E802F15
:1025C0000E943906E82EF501D1905F01D81609F472
:1025D0004CC08091700281FD0E943F0680E0FF2484
:1025E000F394DE249D2D9F21D9F18E83CF82EF209D
:1025F00081E009F480E088870E944F1F8160782F76
:102600009A8789874E815F8168858A850E945D13DC
:10261000F801E350FE4F8081F826F0820E94C70D3A
:102620000E943F210E949D080E943F129091FC0150
:10263000891791F10E943F128093FC012A960FB6F0
:10264000F894DEBF0FBECDBFDF91CF911F910F91E8
:10265000FF90EF90DF90CF90BF90AF900C94C403A9
:102660008F5FFF0C833009F0BDCF0F5F1F4F03302A
:10267000110509F0A3CF8FEF89838A831B820E9403
:102680004F1F8160782F9D838C8349815A816B8194
:102690008D810E945D13C2CF2A960FB6F894DEBFDB
:1026A0000FBECDBFDF91CF911F910F91FF90EF90A3
:1026B000DF90CF90BF90AF900895CF93DF93CDB7C9
:1026C000DEB72B970FB6F894DEBF0FBECDBF4F839A
:1026D000588769877A878B871E821D8285E0FE0175
:1026E0003796DE01119601900D928A95E1F74981A6
:1026F0005A816B817C818D819E812B960FB6F894D7
:10270000DEBF0FBECDBFDF91CF910C944319FC010A
:10271000808191810C94FA1BCF93C82F882309F4F0
:1027200047C08CEF8C0F813AA0F46C2F8091100180
:10273000909111010E94091E882329F08C2F0E947C
:102740002F1C0E949C1C8C2F0E94281CCF910C9443
:102750009C1C80E28C0F883048F4C77081E001C077
:10276000880FCA95EAF70E94501CF0CFEBE5EC0FFA
:10277000E33040F4F0E0E553FE4F808190E0CF91EC
:102780000C947312E8E5EC0FE73150F4F0E0EE0F33
:10279000FF1FE356FE4F80819181CF910C948912E7
:1027A000C03F30F08C2F0E944D20CF910C943421EB
:1027B000CF910895882361F19CEF980F913A20F40E
:1027C0000E942F1C0C949C1C90E2980F983050F49F
:1027D000877091E001C0990F8A95EAF7892F0E94CE
:1027E000561CF0CF9BE5980F933020F490E080E0EA
:1027F0000C94731298E5980F973120F490E080E0E4
:102800000C948912803F20F00E94B5200C94342152
:102810000895CF93C82F0E948C13C93349F42FEF2A
:1028200087EE93E0215080409040E1F700C0000027
:102830008C2FCF910C94DA13882321F00E94501C26
:102840000C949C1C0895882321F00E94561C0C9423
:102850009C1C0895BF92CF92DF92EF92FF920F934C
:102860001F93CF93DF936C01D62FC72FFC010581F7
:1028700002950F70128111110E94701C0E94461C5B
:10288000E82E882371F01123B1F080E28D0F88309B
:1028900090F082E00E94E71C0E94461C91E0E82E26
:1028A000E926BC2EB2949FE0B922EB2DF0E0E9506E
:1028B000F04D0C94692FE12CF4CF0C2F0F70C07FDA
:1028C00011F00295007F1123A9F0002359F080E256
:1028D0008D0F883010F0D11109C0802F0E94501C3C
:1028E0000E949C1C8D2F0E948C1314C0802F0E946C
:1028F000631CF6CF8D2F0E94DA13002359F080E27B
:102900008D0F883010F0D1112CC0802F0E94561CE2
:102910000E949C1C2B2D2850330B2430310520F4B1
:102920000E943F120E94C403EE2009F4D5C10E9408
:10293000421C80FDD1C1F60112820E943C1C0E9403
:10294000C71AC6010E948D160E943C1CDF91CF91D0
:102950001F910F91FF90EF90DF90CF90BF900C945C
:10296000E81A802F0E94691CD3CFFC2FFF70FF2E26
:10297000C07FC03219F0F29480EFF822DD2369F0B5
:10298000D13049F1112391F1002351F1F6018581F4
:1029900080FFA8CF8F70858323C0112381F00111A0
:1029A00006C00E94831C8F290E941C14B3CF0130E3
:1029B000C1F70E94831C8F290E94891CABCF011193
:1029C00006C00E94921C8F2D0E942314A3CF0130B9
:1029D00009F4A0CFF6CF112329F0063008F09ACFE2
:1029E0008F2DE2CF053008F095CFEDCF002359F3BE
:1029F000D93349F4FFEF27EE33E0F1502040304067
:102A0000E1F700C000008D2F0E94DA1383CF8C2FD6
:102A100086958695837069F0813009F07BCF8D2F84
:102A20009C2F9370111102C090E080E00E948912E7
:102A300071CF8D2F9C2F9370111102C090E080E018
:102A40000E94731267CF112309F1D53F99F0D63F49
:102A5000B9F0D43F49F48091E6029091E702816099
:102A60009093E7028093E6028D2F0E944D200E94F2
:102A7000342150CF8091E6029091E7028260F0CF3E
:102A80008091E6029091E7028460EACFD53F89F019
:102A9000D63FA9F0D43F49F48091E6029091E70235
:102AA0008E7F9093E7028093E6028D2F0E94B520DF
:102AB000DECF8091E6029091E7028D7FF2CF809188
:102AC000E6029091E7028B7FECCF8C2F837009F0A8
:102AD00041C011111FCF4D2F429546954770440FAD
:102AE000440F0D2F0F7010E030E020E0042E04C0E2
:102AF000000F111F221F331F0A94D2F760E070E00D
:102B0000CB01D4FF0FC06FE070E080E090E004C024
:102B1000660F771F881F991F4A95D2F760957095A9
:102B200080959095C695C695C370602B712B822BAE
:102B3000932BC23049F058F4C13019F00E94791A31
:102B4000E9CE0E94671AE6CE0E948B1AE3CE0E945D
:102B5000651AE0CE8695112311F08C2F81708823A1
:102B600009F4D8CE4D2F429546954770440F440F37
:102B70000D2F0F7010E030E020E0042E04C0000F95
:102B8000111F221F331F0A94D2F760E070E0CB01BF
:102B9000D4FF0FC06FE070E080E090E004C0660FEB
:102BA000771F881F991F4A95D2F760957095809579
:102BB0009095C695C695C370602B712B822B932B75
:102BC000C23049F058F4C13019F00E943E1BA2CE29
:102BD0000E942C1B9FCE0E94501B9CCE0E94A11ACB
:102BE00099CECF70112329F08C2F0E94C71A8D2FF8
:102BF000DBCE8D2F0E9423148C2F0E94E81A8ACEE0
:102C0000D23F89F160F4D03FC9F0D13F29F11123BF
:102C100009F442C0011166CE8C2F8F7121C0D33FC1
:102C200039F1D43FA1F7112369F1CF718C2F0E94A4
:102C3000C71A63E08C2F0E94D21C6CCE112341F086
:102C4000053008F067CE8C2F8F710E940B1B62CE6F
:102C5000063008F05FCEF7CF8C2F8F71112369F209
:102C60000E94C71A57CE8C2F8F711123C9F3C5CF7D
:102C7000112329F08C2F8F710E94B21A4BCE0E9423
:102C8000AD1A48CE81E00E94E71C023008F442CE23
:102C900082E00E94E71C3ECE002359F0D93309F0B0
:102CA000B2CE8FEF97EEE3E081509040E040E1F745
:102CB000A8CE8C2F8F71A1CF4C2F4F706D2FC601D6
:102CC0000E9424040E94DD1925CE4C2F4F706D2FD9
:102CD000C6010E9427041ECEDF91CF911F910F9154
:102CE000FF90EF90DF90CF90BF9008950F931F93C8
:102CF000CF93DF93EC01688179818A810E94041C63
:102D00008C010E94621B0E94641AB801CE01DF91FF
:102D1000CF911F910F910C942A14CF93DF93EC0164
:102D20008B819C81892B29F08881998189238F3F10
:102D300019F4DF91CF910895CE010E94DC0388231E
:102D4000C1F3CE010E947616CE01DF91CF910C9493
:102D50009403882321F00E94631C0C949C1C08950A
:102D6000882321F00E94691C0C949C1C08950E94E9
:102D7000701C0E94801C0E949C1C0E9459220E9470
:102D8000342190E080E00E94731290E080E00C9487
:102D900089120E94361C0C94B7160E94601C0C9479
:102DA000C916E92FE295EF70E250EE3070F4F0E0D2
:102DB000E95FFF4C0C94692F803F19F020F4883EA6
:102DC00020F481E00895843FE1F380E00895883E97
:102DD000C0F3813FD1F7F5CF93FB882780F90895A1
:102DE0000E94FA1B0C94D116CF93DF9300D000D031
:102DF0000F92CDB7DEB70F900F900F900F900F90FE
:102E0000DF91CF910895CF93DF9300D000D000D011
:102E1000CDB7DEB726960FB6F894DEBF0FBECDBF96
:102E2000DF91CF9108951F93CF93DF93C09101025B
:102E300016E0809102028C1304C0DF91CF911F91A4
:102E40000895D0E01C9FF0011D9FF00D1124ED5F4F
:102E5000FD4F4081518162817381848195810E94FF
:102E600003172196C770E5CF409133025091340289
:102E7000609135027091360280913702909138024C
:102E80000C9403171F93CF93DF9380913802807FB8
:102E9000A9F480913502882389F080910102C091C4
:102EA00002026091330270913402A0913602B09117
:102EB0003702D62FD72316E0C81304C0DF91CF9175
:102EC0001F91089590E0109711F0DF3F19F40196DB
:102ED0008770F2CF189F9001199F300D1124F901CE
:102EE000ED5FFD4F41814713F2CF40814613EFCF95
:102EF00042814111ECCF438154814A1B5B0B483C1A
:102F0000510528F7809138028F70806180933802D4
:102F1000F901E85FFD4F80818F708061808383E3DA
:102F200092E00E948D16DF91CF911F910C941317A0
:102F3000AF92BF92CF92DF92EF92FF920F931F93C7
:102F4000CF93DF93CDB7DEB761970FB6F894DEBFAE
:102F50000FBECDBF8C0185E0F801DE011D9601900A
:102F60000D928A95E1F7F80140815181E28083E377
:102F7000C82E82E0D82E609136027091370261151A
:102F8000710509F461C19091330220913402892FB7
:102F900082238F3F09F458C1A380B480F09035029A
:102FA000F501E61BF70BFF2009F4FCC08091380205
:102FB000382F307FE83CF10508F0B2C0311179C0FC
:102FC000FE2C251323C0941321C0E1101FC08F7065
:102FD0008061809338020E943417C6010E948D16CA
:102FE00080913802F80185838F2D61960FB6F89491
:102FF000DEBF0FBECDBFDF91CF911F910F91FF902C
:10300000EF90DF90CF90BF90AF900895AB2829F05C
:10301000842F85238F3F09F033C180E0F82FF170B2
:10302000DF2E80FF3CC0809101022091020236E039
:10303000821315C04D875E878D859E850E94FA1B81
:10304000292F22952F702230F0F0243018F59F7030
:10305000F1F0F8019581907FD1F4D12C1EC090E061
:10306000389FF001399FF00D1124ED5FFD4F618114
:10307000651306C06081641303C062816E110FC0C6
:1030800001968770D5CF9F7011F0882331F3805E51
:10309000883018F3C8010E948D16FD2CA5CFEE20B4
:1030A00009F4A2CF80913802816080933802F12C1C
:1030B0009BCF251306C0941304C0F801EE2009F439
:1030C0008DC04D875E878D859E850E94F016882372
:1030D00019F1EE2009F180913802803270F02091D0
:1030E00033023091340238872F831986BB86AA8633
:1030F0008C87CE0107960E948D1686E0F801A3E327
:10310000B2E001900D928A95E1F70E9442170E9469
:103110003417FF24F39468CFC8010E948D16F9CFAD
:10312000311113C07A2DB98AA88A6E2D89890E941F
:10313000F41683E392E00E948D1686E0F601119268
:103140008A95E9F70E943417B2CF25130FC0941364
:103150000DC0E1100BC0F8018583C8010E948D16D7
:1031600086E0F60111928A95E9F73ECF4D875E879A
:103170008D859E850E94F016882371F2EE2061F203
:1031800080913802803208F4B8CF20913302309118
:1031900034023A8329831B82BD82AC828E83CE01A6
:1031A0000196A9CFE83CF10508F041C0FE2CEE20C5
:1031B00009F4B2CF25132AC0941328C08091380295
:1031C00080FD1BC0982F907FC1F0F8018583903F50
:1031D00031F0982F907F905F8F70892B8583C80185
:1031E0000E948D1686E0F801A3E3B2E001900D92F3
:1031F0008A95E1F70E943417F7CE86E0F801A3E341
:10320000B2E001900D928A95E1F7EECE4D875E8790
:103210008D859E850E94F01681116FCF80913802B6
:10322000816080933802C8010E948D16DDCE7A2D10
:10323000B98AA88A6E2D89890E94F41686E0F60163
:1032400011928A95E9F7D6CFEE2009F465CF4D8724
:103250005E878D859E850E94F016F82E882309F4DE
:103260005BCF86E0F801A3E3B2E001900D928A956E
:10327000E1F783E392E00E9487130E944217BACFDE
:1032800081E08E25CBCE1F93CF93DF93CDB7DEB7F2
:103290002C970FB6F894DEBF0FBECDBF4F83588773
:1032A00069877A878B879C87CE0107960E9498173B
:1032B000882369F08A859B85892B39F04F81588551
:1032C000842F85238F3F09F071C016E05FC086E030
:1032D000FE013796DE01119601900D928A95E1F775
:1032E0008A859B85892B89F388859F8189238F3FD8
:1032F00061F32091020230E0C9010196877099279D
:10330000409101024817190671F40E94CD161092DF
:1033100002021092010286E0E3E3F2E0DF011D9277
:103320008A95E9F7D2CF96E0929FD001939FB00D96
:103330001124AD5FBD4FFE01319601900D929A951B
:10334000E1F7809302020E941317BFCF819FC00153
:1033500011248D5F9D4F0E9498178823E9F0E0911A
:1033600001021E9FF0011124ED5FFD4F408151814C
:1033700062817381848195810E940317809101028B
:1033800090E0019687709927809301028091010255
:10339000909102028913DACF2C960FB6F894DEBF13
:1033A0000FBECDBFDF91CF911F91089569857A85BA
:1033B0008B859C850E94031788CFEF92FF920F9315
:1033C0001F93CF93DF938C01892B81F0F12CEE2496
:1033D000E394E8012196F8018491843770F48430F5
:1033E00008F05FC08130B1F08230A1F1DF91CF9160
:1033F0001F910F91FF90EF900895853709F44CC00D
:1034000008F43DC09CE7980F903780F78F770E94B3
:10341000DA1349C00E5F1F4FFE01849190E2980FAE
:10342000983060F48770FE2D01C0FF0F8A95EAF78F
:103430008F2F0E94731C0E949C1C02C00E948C1340
:103440008F2D815030F2EFE9FFE03197F1F700C0A6
:103450000000F7CF0E5F1F4FFE01849190E2980F9E
:10346000983050F48770FE2D01C0FF0F8A95EAF75F
:103470008F2F0E94791CDFCF0E94DA13E1CF0E5FFD
:103480001F4FFE01C491C150D8F28FE99FE0019710
:10349000F1F700C00000F7CF0E5F1F4FFE01F49060
:1034A000CFCF0E948C138E01CBCF08950C94551A68
:1034B0000E94561A60934702709348028093490213
:1034C00090934A020C94B71608950C94581A0F93CF
:1034D0001F930091470210914802209149023091B8
:1034E0004A02602B712B822B932B1F910F910C940E
:1034F000581A0F931F930091470210914802209190
:10350000490230914A0260237123822393231F9141
:103510000F910C94581A0F931F930091470210912A
:1035200048022091490230914A0260277127822780
:1035300093271F910F910C94581A0C94551A0C94C0
:103540009D1A0E949F1A60934302709344028093D5
:103550004502909346020C94B71660E070E0CB01F0
:103560000C94A11A0F931F9341E050E060E070E0CB
:103570008A019B0104C0000F111F221F331F8A956F
:10358000D2F7C901B8011F910F910C94A11A0F93A2
:103590001F9341E050E060E070E004C0440F551F0D
:1035A000661F771F8A95D2F780914302909144025B
:1035B000A0914502B09146028A019B01082B192B6C
:1035C0002A2B3B2BC901B8011F910F910C94A11A12
:1035D0000F931F9341E050E060E070E004C0440F9F
:1035E000551F661F771F8A95D2F7CB01BA016095E8
:1035F000709580959095009143021091440220911E
:1036000045023091460260237123822393231F9148
:103610000F910C94A11A0F931F9341E050E060E0CA
:1036200070E004C0440F551F661F771F8A95D2F7BC
:103630008091430290914402A0914502B0914602CC
:103640008A019B01082719272A273B27C901B801AE
:103650001F910F910C94A11A0F931F930091430295
:10366000109144022091450230914602602B712B4B
:10367000822B932B1F910F910C94A11A0F931F93E0
:10368000009143021091440220914502309146027C
:1036900060237123822393231F910F910C94A11A0D
:1036A0000F931F9300914302109144022091450211
:1036B0003091460260277127822793271F910F912F
:1036C0000C94A11A0895E92FEE0F9E0F890F982FE1
:1036D000977041E001C0440F9A95EAF78695869568
:1036E000869595E0899FF0011124E75CFD4F30E05D
:1036F00020E070E05191DF011197CB01022E02C052
:10370000969587950A94E2F78170819585278423A1
:1037100085278C932F5F3F4F2530310559F708954A
:10372000E92FEE0F9E0F890F982F9770869586953B
:10373000869525E0829FF0011124E75CFD4F50E063
:1037400040E080E0219130E0092E02C036952795B7
:103750000A94E2F721703327042E01C0220F0A9445
:10376000EAF7822B4F5F5F4F4530510559F70895B7
:10377000BF92CF92DF92EF92FF920F931F93CF935E
:10378000DF938C01C0904302D0904402E090450248
:10379000F09046028091470290914802A091490220
:1037A000B0914A02C82AD92AEA2AFB2ACFE1D0E0FE
:1037B000BC2ED701C6010C2E04C0B695A7959795CF
:1037C00087950A94D2F780FD0EC0219788F7B12C17
:1037D0008B2DDF91CF911F910F91FF90EF90DF9094
:1037E000CF90BF900895B8018C2F0E944404019798
:1037F00061F3EECFCF93DF93EC010E94B81BBE01C3
:10380000DF91CF910C9444041F93CF93DF93EB018E
:1038100090910002992331F0CB01DF91CF911F915C
:103820000C94FA1B882379F0CB010E94B81B182F47
:10383000682FCE010E94631BBE01812FDF91CF91C3
:103840001F910C944404CB010E94901B182FF4CFBD
:10385000682F80911001909111010C94891E682F9E
:1038600080911001909111010C94941E809110018F
:10387000909111010C949F1E80914B028595859526
:103880008595089580914B028770089590914B0221
:10389000977081E009F480E0089580916F020895A7
:1038A00090916F02892B80936F020895809590917B
:1038B0006F02982390936F02089580936F0208958A
:1038C00010926F02089590916E02892B80936E0280
:1038D0000895809590916E02982390936E020895BA
:1038E00010926E02089590916D02892B80936D0263
:1038F0000895809590916D02982390936D0208959C
:1039000010926D02089580914C02089508950C94D0
:10391000861C90914C02981721F080934C020C94D5
:10392000871C089580914C02882329F010924C0244
:1039300080E00C94871C0895E0911001F091110132
:1039400080916F028083E0911001F09111018081DC
:1039500090916E02892B8083E0911001F09111010A
:10396000808190916D02892B808390914C029923E4
:1039700081F0E0911001F09111018081892B808309
:1039800080911001909111010E94F51D81110E94FA
:10399000921C80911001909111010C944B1208958A
:1039A0000C94CF1C98E0899F90011124622B6093A6
:1039B0004B020E94C71A80914B028595859585958B
:1039C0000C94D01C10924B0280E00C94D01C90916F
:1039D0004B028095892380934B02282F277071F426
:1039E000282F082E000C330B9217130639F08595FB
:1039F000859585950E94E81A0C94E21C0895CF9253
:103A0000DF92EF92FF926C01EE24FF2420E0C114BC
:103A1000D104E104F10419F0C701B60120E1C72E79
:103A2000D82EE92EFF24C114D104E104F10419F0C9
:103A3000285FC701B6016B017C0154E0F694E7945E
:103A4000D794C7945A95D1F7C114D104E104F10475
:103A500019F02C5FC701B6016B017C0142E0F694BE
:103A6000E794D794C7944A95D1F7C114D104E104DF
:103A7000F10419F02E5FC701B601969587957795E9
:103A80006795672B682B692B09F02F5F822FFF90BA
:103A9000EF90DF90CF90089590E080E00E949A2F01
:103AA00021E08C3E9E4F09F020E0822F089582E0B5
:103AB00090E00C948C2F83E090E00C948C2F682F76
:103AC00083E090E00C94A02FCF9384E090E00E94DC
:103AD0008C2FC82F81E290E00E948C2F982F8C2F82
:103AE000CF910895CF93C92F682F84E090E00E9472
:103AF000A02F6C2F81E290E0CF910C94A02FAB010E
:103B0000BC018FE090E00C94B22FAB01BC0183E1CB
:103B100090E00C94B22F60E070E0CB010C94851D16
:103B200060E070E0CB010E947F1D0C948B1D6CEE59
:103B30007EEF90E080E00E94BE2F60E082E090E0A7
:103B40000E94A02F60E083E090E00E94A02F1092DE
:103B50004702109248021092490210924A0260E015
:103B600084E090E00E94A02F60E081E290E00E945B
:103B7000A02F60E085E090E00E94A02F60E086E04A
:103B800090E00E94A02F6FEF87E090E00E94A02FAE
:103B900040E050E0BA0188E090E00E94B22F60E07F
:103BA0008DE090E00E94A02F40E050E0BA0188E153
:103BB00090E00E94B22F60E087E190E00E94A02F89
:103BC00040E050E0BA018CE190E00E94B22F60E04A
:103BD00080E290E00E94A02F0C94901D0C94971D01
:103BE000682F8EE090E00C94A02FFC01329680911B
:103BF0003001882321F08091EC029EE187FF96E05E
:103C000080E0915008F4089521912223D1F38F5F31
:103C1000F8CF662301F1209130012223F1F02091A9
:103C2000EC0227FF1AC0462F4695469546954E3121
:103C300090F4677021E030E002C0220F331F6A95D4
:103C4000E2F7840F911DFC01828190E02823392343
:103C500081E0232B69F480E00895FC0132960896F8
:103C60002191261721F0E817F907D1F7F4CF81E069
:103C700008959C01FC0132969FEF80E04191461728
:103C800051F09F3F19F4411101C0982F8F5F86308A
:103C9000A9F79F3F09F40895290F311D97FD3A9523
:103CA000F90162830895FC0132960896219126134A
:103CB00003C0DF0111971C92E817F907B9F70895BF
:103CC000E62FE695E695E695EE3168F4E80FF92FD4
:103CD000F11D677021E030E001C0220F6A95EAF71C
:103CE0008281822B82830895E62FE695E695E695FC
:103CF000EE3170F4E80FF92FF11D677021E030E02C
:103D000001C0220F6A95EAF7209582812823228339
:103D1000089520913001222329F02091EC0227FD03
:103D20000C94601E0C94391E20913001222329F03E
:103D30002091EC0227FD0C94741E0C94531EFC0180
:103D4000329680913001882351F08091EC0287FFF8
:103D500006C08EE1DF011D928A95E9F7089586E09D
:103D6000F9CF089508950C94B21E0E94B31E80915D
:103D7000DF03843009F439C01092710288E190E0C9
:103D800020E40FB6F894A895809360000FBE2093AE
:103D9000600080E00E94C4030E94C40D8091720202
:103DA00081110AC081E0809372028091D0028170FB
:103DB000809373020E94F70C0E94B31E83B7817F29
:103DC000846083BF83B7816083BF7894889583B70D
:103DD0008E7F83BF0FB6F894A895809160008861AC
:103DE00080936000109260000FBE08950895CF93F5
:103DF0000E94B11E0E9491060E94F61EC0E08C2F08
:103E00000E943906811105C0CF5FC330C1F7CF9141
:103E1000089581E0FCCF08950C940B1F0E94CD16ED
:103E20000E943F120E94C40310927202809173029A
:103E300081110E94BC0D0E94090D0C940C1F1F9251
:103E40001FB61F9211248F939F93AF93BF938091BE
:103E50007102811113C08091E8029091E902A09152
:103E6000EA02B091EB024196A11DB11D8093E802D8
:103E70009093E902A093EA02B093EB02BF91AF9155
:103E80009F918F911F901FBE1F90189582E084BD57
:103E900093E095BD9AEF97BD80936E0008952FB77C
:103EA000F8948091E8029091E902A091EA02B09121
:103EB000EB022FBF08959C014FB7F8948091E80260
:103EC0009091E902A091EA02B091EB024FBF821BF0
:103ED000930B089578941F921FB61F9211248F930D
:103EE0009F93AF93BF938091E8029091E902A091D4
:103EF000EA02B091EB020196A11DB11D8093E80288
:103F00009093E902A093EA02B093EB02BF91AF91C4
:103F10009F918F911F901FBE1F90189581E08093F5
:103F2000E00080E28093D8001092C9008FE19EE407
:103F30000197F1F700C0000087E090EBDC0180936F
:103F4000E8039093E903A093EA03B093EB0388E1BD
:103F50009CE00FB6F894A895809360000FBE9093F4
:103F60006000FFCF0E944C1D811102C00E94EE1D17
:103F70000E94571D809370020E94641D9093ED0271
:103F80008093EC020E945B1D682F70E090E080E05F
:103F90000C94651A80917B0280FF12C0609117011A
:103FA00085E0689FB00111247595679575956795B3
:103FB00060387105A8F561157105A1F1862F089586
:103FC00081FF09C06091170185E0689FB00111244D
:103FD00075956795EDCF6091170182FD0AC08091BC
:103FE0007A028823D1F09091160160911701891708
:103FF00028F085E0689FB0011124DACF869FB001D8
:10400000112485E0869F9001879F300D1124692F30
:1040100070E0C9010E94552FCBCF65E070E0CECF94
:104020008FE7089581E0089580917B0280FF0CC0A6
:104030006091130170E075956795759567956115A9
:10404000710549F1862F089581FF06C06091130123
:1040500070E075956795F3CF6091130182FD0BC0F9
:1040600090917A029923A1F060911201809113013D
:10407000961738F0682F70E06038710500F38FE70D
:104080000895899FC001112470E00E94552FF4CF3C
:1040900061E070E0D7CF81E00895803F31F40E9465
:1040A000CA1F819580937F020895813F19F40E9471
:1040B000CA1FF8CF823F31F40E94CA1F81958093B6
:1040C0007E020895833F19F40E94CA1FF8CF893FEA
:1040D00029F40E9414208093800208958A3F21F4DD
:1040E0000E9414208195F7CF8B3F31F40E94142059
:1040F00081958093810208958C3F19F40E941420C9
:10410000F8CF843F31F480917D02816080937D02FD
:104110000895853F21F480917D028260F7CF863F2C
:1041200021F480917D028460F1CF873F21F480915A
:104130007D028860EBCF883F21F480917D02806111
:10414000E5CF8D3F31F480917B02816080937B02CB
:1041500008958E3F21F480917B028260F7CF8F3FDC
:10416000B9F780917B028460F1CF90917E02803F0D
:1041700041F480917F0287FD10927F02992371F0B4
:104180000895813F29F480917F021816ACF3F6CF91
:10419000823F81F497FFF2CF10927E0280917F02DE
:1041A00090918002892B90918102892B49F710927E
:1041B0007A020895833F19F4191674F3DFCF893F0B
:1041C00039F4809180021816CCF610928002D6CF76
:1041D0008A3F29F48091800287FFD0CFF6CF8B3FB2
:1041E00039F48091810287FFC9CF10928102C6CF36
:1041F0008C3F29F4809181021816BCF3BFCF843F15
:1042000031F480917D028E7F80937D02B7CF853F10
:1042100021F480917D028D7FF7CF863F21F480913C
:104220007D028B7FF1CF873F21F480917D02877FD4
:10423000EBCF883F21F480917D028F7EE5CF8D3FCB
:1042400031F480917B028E7F80937B0297CF8E3FEB
:1042500021F480917B028D7FF7CF8F3F09F08ECFC5
:1042600080917B028B7FF0CF8CE792E00E946512F9
:104270000E944F1F90937902809378020895CF9304
:10428000DF9300D000D000D0CDB7DEB786E0ECE7FA
:10429000F2E0DE01119601900D928A95E1F780918E
:1042A0007E0290917F02892B81F08091760290911D
:1042B00077020E945B1FAC0190917A02992331F141
:1042C000809118018417150670F1809180029091F9
:1042D0008102892B91F080917402909175020E9465
:1042E0005B1FAC0190917A02992309F478C0809108
:1042F00014018417150608F480C026960FB6F894AA
:10430000DEBF0FBECDBFDF91CF910895209119017F
:104310008AE0289F9001112424173507B0F69F5F8B
:1043200090937A0202C09F3FD1F7109280021092C0
:10433000810280917E02181624F40E94CA1F809385
:104340007E0280917E0287FF05C00E94CA1F819570
:1043500080937E0280917F02181624F40E94CA1F67
:1043600080937F0280917F0287FF05C00E94CA1F51
:10437000819580937F0230917E023323A1F02091BA
:104380007F02222381F045EB3403C00111249923DD
:10439000F1F090937E0245EB240390011124332326
:1043A000D1F030937F020E94342180917802909165
:1043B0007902909377028093760286E0FE0131962F
:1043C000ACE7B2E001900D928A95E1F77ECF81E0F3
:1043D00080937E02E0CF81E080937F02E4CF209142
:1043E00015018AE0289F900111242417350708F051
:1043F00084CF9F5F90937A0202C09F3FD1F71092C3
:104400007E0210927F0280918002181624F40E948E
:104410001420809380028091800287FF05C00E9453
:10442000142081958093800280918102181624F4D3
:104430000E941420809381028091810287FF05C031
:104440000E94142081958093810230918002332351
:10445000A1F020918102222381F045EB3403C001B9
:1044600011249923F1F09093800245EB24039001ED
:1044700011243323D1F0309381020E9434218091A2
:10448000780290917902909375028093740286E08D
:10449000FE013196ACE7B2E001900D928A95E1F70A
:1044A0002CCF81E080938002E0CF81E08093810275
:1044B000E4CF86E0ECE7F2E0DF011D928A95E9F7B0
:1044C00010927A0210927B020895881F8827881F15
:1044D000089591E0883F08F490E0892F0895982F7F
:1044E000907F903BE9F040F49039D1F0903AC1F0E0
:1044F0009038B1F080E00895903D19F020F4903CA0
:10450000C9F782E00895903E59F0903F99F7815F96
:104510008F3080F7E82FF0E0E253FE4F808108955E
:1045200083E008950F93DC01ED91FC9109950F91C3
:1045300008956F927F928F929F92AF92BF92CF9287
:10454000DF92EF92FF920F93CF93DF9300D00F9201
:10455000CDB7DEB74C015B013A01F12CE12CEA1436
:10456000FB0488F00F900F900F90DF91CF910F9187
:10457000FF90EF90DF90CF90BF90AF909F908F9083
:104580007F906F90089519821A821B826501CE1860
:10459000DF0884E0C816D10418F083E0C82ED12CBF
:1045A000B3016E0D7F1DA601CE0101960E94832FDF
:1045B0000B812A814981B601C4010E94922283E0C5
:1045C000E80EF11CCCCFFC01738362830895FC01DB
:1045D000738F628F0895FC01758F648F0895CF9358
:1045E000DF93EC011DA21FA21EA2BC01685D7F4FDC
:1045F00040EC88519F4F0E94FA241B821A821D8230
:104600001C821F821E82198618861B861A861D86AA
:104610001C861F861E86198A188A1B8A1A8A1D8A7A
:104620001C8A1F8A1E8A198E188E1B8E1A8E1D8E4A
:104630001C8E1F8E1E8E19A218A2DF91CF91089595
:10464000EF92FF920F931F93CF93DF93EA018A01BA
:10465000060F111D88519F4F7C01C017D10739F4F7
:10466000DF91CF911F910F91FF90EF900895699185
:10467000C7010E940125F1CFFC0171836083089579
:10468000FC0171A360A30895AF92BF92CF92DF9215
:10469000EF92FF920F931F93CF93DF9300D00F926F
:1046A000CDB7DEB77C016B01142FB22EA02EDC013A
:1046B00095968C9195978430A9F55A96ED91FC9139
:1046C0003097E9F1CB01019763E070E00E94412F40
:1046D000CB01880F991F860F971F4983BA820B83DE
:1046E0004C2D481B9E012F5F3F4FBC01C701099510
:1046F000D7015E96ED91FC91309731F00A2D2B2D6C
:10470000412FB601C70109950F900F900F90DF91CF
:10471000CF911F910F91FF90EF90DF90CF90BF90BE
:10472000AF9008956230710509F455C0633071058A
:1047300099F06130710509F481C0D12CC12CD701E9
:104740005C96ED91FC91309799F20A2D2B2D412F1B
:10475000B601C7010995CCCF842F807F803A11F133
:1047600048F48038D1F0803951F7D7011496ED9193
:10477000FC910AC0803ED9F0803FF1F0803BF9F611
:10478000D7011296ED91FC913097C9F2123FE9F0F2
:104790002A2D4B2D612F6F701BC0D7011696ED91FE
:1047A000FC91F2CFD7011896ED91FC91EDCFD70196
:1047B0001A96ED91FC91E8CF423F09F6D7011C967D
:1047C000ED91FC91309709F4BACF2A2D4B2D62EF71
:1047D000C70109958DCF842F807F803DB1F0803F48
:1047E000C9F0803C09F0ABCFD7011E96ED91FC914A
:1047F000309709F4A4CF812F8D7F4B2D612F6F70DF
:10480000813F89F0C701099573CFD7015096ED918B
:10481000FC91EECF433F51F4D7015296ED91FC91BC
:10482000309709F48CCF4B2D612FECCF413F09F02D
:1048300086CFD7015496ED91FC91F2CF842F0E9440
:104840006922882359F0D7015696ED91FC91309753
:1048500009F475CF612FC70109954ACF163F09F0BA
:104860006ECFD7015896ED91FC91F1CFFF920F9347
:104870001F93CF93DF93EC01162F862F0E9469229E
:10488000882391F0FDA081E08DA300E020E0412F7E
:1048900061E070E0CE010E944423FDA2DF91CF9140
:1048A0001F910F91FF900895812F0E9465224DA1C5
:1048B000882309F443C0443029F01AA381E090E032
:1048C0009FA38EA3812F0E946F22813051F08823F5
:1048D000A9F0823089F0833079F01DA21FA21EA2B8
:1048E000DDCF8DA300E020E0412F61E070E0CE013C
:1048F0000E9444231DA2D2CF8DA3D0CF103FB1F090
:10490000173F59F72EA13FA1C90163E070E00E9453
:10491000412FFE01E80FF91F12A3B9016F5F7F4F0E
:104920007FA36EA30CA12BA14AA1E1CF84E08DA3AC
:104930001AA381E090E09FA38EA3B0CF442309F493
:10494000ADCF2EA13FA1C90163E070E00E94412FCD
:10495000FE01E80FF91F12A3B9016F5F7F4F7FA31C
:104960006EA38130910569F0029709F097CF0CA1F1
:104970002BA14AA1CE010E9444238DA18430C9F607
:104980008DCF00E0423009F089CFF2CFCF92DF9295
:10499000EF92FF920F931F93CF93DF93EC01E8A167
:1049A000F9A1309709F009956E0188EEC80ED11C67
:1049B000C6010E94302510E000E0E82EF12C0E1513
:1049C0001F0548F0DF91CF911F910F91FF90EF905D
:1049D000DF90CF90089560E0C6010E944425682FC3
:1049E000CE010E94362461E0C6010E9454250F5F6B
:1049F0001F4FE5CFFC0142837483638311821082D1
:104A000008951F93CF93DF93EC01162F0E946B251F
:104A1000482F298130E0C90101966A8170E00E9427
:104A2000552F58815817190641F4842F0E946E257E
:104A300080E0DF91CF911F9108958B819C81280F99
:104A4000391FF9011083898190E001966A8170E035
:104A50000E94552F8983842F0E946E2581E0E9CF23
:104A6000CF93DF93EC010E946B25998128819217E7
:104A700040F0C92FC21B0E946E258C2FDF91CF9171
:104A80000895CA819C0FF5CFFC018081860F99277C
:104A9000991F628170E00E94552F23813481280F75
:104AA000391FF901808108951F93CF93DF93EC01A3
:104AB000162F0E946B25282F8881810F9927991F17
:104AC0006A8170E00E94552F8883822FDF91CF91F9
:104AD0001F910C946E258FB7F89408958FBF089599
:104AE000482F47709C0183E0369527958A95E1F71A
:104AF00057E0529FC001539F900D1124442319F099
:104B00000197840F911D08958F929F92BF92CF922B
:104B1000DF92EF92FF920F931F93CF93DF934C019D
:104B2000EB017A01CA0167E070E00E94412F8E011B
:104B3000D40130E020E02617370709F046C0C7014E
:104B400067E070E00E94412FD90143E0AA0FBB1F2C
:104B50004A95E1F7009761F1F401EA0FFB1F10821B
:104B600067E0629FA001639F500D11248E01040F26
:104B7000151F30E020E0E80179918E012F5F3F4F53
:104B8000472F407850E0022E02C0559547950A9471
:104B9000E2F75081452B4083AF01420F531F7F77CF
:104BA000EA0178838217930731F70196A80FB91F9E
:104BB000CD01DF91CF911F910F91FF90EF90DF908A
:104BC000CF90BF909F908F9008951C92A80190E085
:104BD00080E0FA01B190AF010196FB2DF078CF2E65
:104BE000D12C082E02C0D594C7940A94E2F7DC9029
:104BF000CD28CC926D01C80ED91EE894B7F8F60105
:104C0000B0828730910529F72F5F3F4F095F1F4F13
:104C1000189691CF6F927F929F92AF92BF92CF9250
:104C2000DF92EF92FF920F931F93CF93DF933C019C
:104C300090E080E04230510560F15A0183E0B69483
:104C4000A7948A95E1F78301EB01B0E0A0E0AA15F3
:104C5000BB0569F5242F277037E03A9FC0013B9FC1
:104C6000900D11242223A9F0487F640F751FEB01DA
:104C70005301A80EB91EB0E0A0E0422F50E08A0117
:104C8000015011092196A017B107B0F10197840FC7
:104C9000951FDF91CF911F910F91FF90EF90DF90C3
:104CA000CF90BF90AF909F907F906F9008957801C4
:104CB00081E090E09E01280F391FF9012081922E9A
:104CC000E89497F8F70191927F016F01F1E0CF1A14
:104CD000D1082881082E01C0220F0A94EAF7207813
:104CE0002929F601208301968830910519F711963C
:104CF000095F1F4F2896ABCF2881D22EE894D7F8B2
:104D0000F501D1925F0111967F01F1E0EF1AF108F0
:104D1000FB013081232F0A2E01C0220F0A94EAF7EB
:104D200020782D29F7012083ADCF08950895EF92C3
:104D3000FF920F931F93CF93DF93CDB7DEB7A0976A
:104D40000FB6F894DEBF0FBECDBFF9018B01045042
:104D5000110990E080E08417C8F417FD2BC0DF0133
:104D6000A80FB91F3C91373FF1F4C8010E9470258C
:104D70007C01A80162E872E0CE0101960E940A2639
:104D8000BE016F5F7F4FC7010E94D807A0960FB684
:104D9000F894DEBF0FBECDBFDF91CF911F910F9171
:104DA000FF90EF9008950532110584F7D801AE57B2
:104DB000BD4F3C930F5F1F4F0196CDCF0F931F93B5
:104DC000CF93DF9300D000D000D00F92CDB7DEB7E5
:104DD0008C01CE0101960E94922981110BC0279669
:104DE0000FB6F894DEBF0FBECDBFDF91CF911F91FC
:104DF0000F9108958A810E946F229A819D839B81E1
:104E00009E839C819F8381110AC08981843079F0BF
:104E1000873069F0863069F08530D9F681E0AE01DF
:104E20004B5F5F4F682FC8010E942023D2CF83E0E1
:104E3000F6CF82E0F4CFDF92EF92FF920F931F93B1
:104E4000CF93DF9300D000D0CDB7DEB77B01142F16
:104E5000D22E4A832B830C83842F0E946F228111D0
:104E600029C082E0E816F10401F183E0E816F104BC
:104E700039F0EA94EF2869F485E0173F21F404C083
:104E800087E0073F09F084E08983CE0101960E9404
:104E90008D290F900F900F900F90DF91CF911F9160
:104EA0000F91FF90EF90DF90089587EFD812EBCF2E
:104EB00086E0EACF12951F701983E7CF8EEE92E05D
:104EC0000E94EF226BE177E28EEE92E00E943C239B
:104ED0006EED76E28EEE92E00E94402365E976E286
:104EE0008EEE92E00E94EB2266E976E28EEE92E090
:104EF0000E94E32267E976E28EEE92E00C94E722CC
:104F00009B014091DF034430C1F4FC0191819F700B
:104F10009093E90050E040E064E070E0C9010E9435
:104F2000612A81110BC09091E80095FD07C0909116
:104F3000E8009E779093E800089582E0089520911C
:104F4000DF03243091F4FC0181818F708093E900AC
:104F50009091F3008091F200892B49F08091E80054
:104F60008E778093E8000C940F2C82E0089580E007
:104F70000895FC018091DF03843059F491819F7082
:104F80009093E9008091E80080FF03C0CF010C946A
:104F90009F2708959B014091DF03443011F080E08A
:104FA0000895FC0196819F709093E9008091E8003C
:104FB00082FFF5CF8091E80085FFF1CF50E040E01F
:104FC00064E070E0C9010E94B02A8091E80085FD8C
:104FD00005C08091E8008B778093E80081E0089518
:104FE0008091C7020895CF93DF9300D00F92CDB781
:104FF000DEB79091DF03943019F589837B836A8350
:1050000082E08093E9008FEF9091E800815095FD58
:1050100006C095ED9A95F1F700008111F5CF8091CA
:10502000E80085FF0DC050E040E063E070E0CE0195
:1050300001960E94612A8091E8008E778093E800B3
:105040000F900F900F90DF91CF910895CF93DF9342
:10505000EC010E94442A823011F0843031F4BE0108
:1050600084E0DF91CF910C94F327DF91CF910895E5
:10507000BC0183E00C94F327CF93DF93EC010E94F3
:10508000442A823011F08430F9F482E08093E90000
:105090008FEF9091E800815095FD06C095ED9A95AF
:1050A000F1F700008111F5CF8091E80085FF0CC079
:1050B00050E040E066E070E0CE010E94612A8091FD
:1050C000E8008E778093E800DF91CF910895CF9329
:1050D000DF93EC010E94442A823011F08430B9F54C
:1050E000809130018823B1F18091EC0287FF32C0BA
:1050F00060E282E08093E9008FEF9091E8008150B8
:1051000095FD06C095ED9A95F1F700008111F5CF58
:105110008091E80085FF1BC08091300170E050E075
:1051200040E0811104C050E040E068E070E0CE0152
:105130000E94612A8091E8008E778093E80080E2E7
:10514000FE01A7EAB2E001900D928A95E1F7DF91A6
:10515000CF91089568E081E0CDCF8091DE03811189
:1051600009C00E94402C0E949D2C8091E200846026
:105170008093E20008951092DE0308950895089543
:105180000C940E1F42E061EC81E00E94BC2B42E2D5
:1051900061EC82E00E94BC2B42E361E883E00E9464
:1051A000BC2B42E360E884E00C94BC2B8091E103CB
:1051B000833009F45FC030F48130C1F1823009F4EA
:1051C0009BC008958A3009F487C08B3009F46DC004
:1051D000893009F04EC08091E003813209F049C066
:1051E0008091E4039091E503029708F042C080911A
:1051F000E800877F8093E8008091E80082FF35C057
:105200009091F3008091F200029729F48091F100CF
:105210008B7F813021F48091F1008093C7028091CF
:10522000E8008B778093E8000C94F02B8091E003EA
:10523000813AF9F48091E800877F8093E8008091BB
:10524000E4039091E503892B61F460E287EA92E040
:1052500070E00E94FF2A8091E8008B778093E8003D
:10526000089560E090E080E0F3CF8091DF0381114A
:10527000C3CF08958091E003813AD9F78091E40388
:105280009091E503892BA9F78091E800877F8093AF
:10529000E8008091E80080FFFCCF8091300180938E
:1052A000F1008091E8008E77BDCF8091E0038132DC
:1052B00001F78091E4039091E503892BD1F6809169
:1052C000E800877F8093E8000E94F02B8091E20342
:1052D000809330010C94CD168091E003813249F621
:1052E0008091E800877F8093E8000E94F02B8091F6
:1052F000E3038093C80208958091E003813A09F0A6
:10530000B8CF8091E800877F8093E8008091E80023
:1053100080FFFCCF8091C802C2CFBC018AE191E03E
:105320000C948027BC018AE191E00C94CA270E946A
:105330005E2784B7877F84BF0FB6F894A8958091C5
:105340006000886180936000109260000FBE80E86A
:1053500090E00FB6F89480936100909361000FBEC7
:105360000E94AD120E94402C0E949D2C8091E20070
:1053700084608093E20078940E94262F0E94B512E8
:1053800086E291E00E943A128091DF03853039F085
:105390000E94BF128AE191E00E94B927F5CF0E94D6
:1053A000B51E8091DD03882379F30E94F71E8823C0
:1053B00059F30E944B2AE8CF0C94DE29292F33277A
:1053C0002330310519F168F42130310509F44AC060
:1053D0002230310509F44BC090E080E030E020E05D
:1053E00028C02132310579F122323105A9F780E454
:1053F00090E02EEA34E061157105D9F08CEB90E075
:1054000022EF33E061307105A1F0E6CF99278130BA
:10541000910599F0009741F08230910589F003974A
:10542000D9F6E9EFF2E002C0EDE3F3E0849190E019
:105430009F01FA01318320830895EDE1F3E0F6CF77
:10544000EFEFF2E0F3CF89E090E023E533E0611580
:10545000710579F389E090E02CE633E06130710565
:1054600041F3BACF82E190E020EE33E0E2CF8FE962
:1054700090E021E433E0DDCF8091DF03843011F44C
:1054800082E0089581E008958091C902811102C0EF
:105490000C943C2A089580E189BD82E189BD09B45C
:1054A00000FEFDCF8091D8008F7D8093D800809141
:1054B000E00082608093E0008091E00081FDFCCFFD
:1054C0000895AF92BF92CF92DF92FF920F931F93F6
:1054D000CF93DF936C01EB018A010E940F2CF82E11
:1054E000811123C00115110539F0F80180819181E6
:1054F000C81BD90BC80ED91EB12CA12C2097A9F01E
:105500008091E80085FD22C08091E8008E7780932D
:10551000E80001151105A1F0F80180819181A80E24
:10552000B91EB182A08285E0F82E8F2DDF91CF9138
:105530001F910F91FF90DF90CF90BF90AF90089593
:105540000E940F2C8823D1F2F82EEFCFF601819123
:105550006F018093F1002197FFEFAF1ABF0ACECF02
:10556000AF92BF92CF92DF92FF920F931F93CF9390
:10557000DF936C01EB018A010E940F2CF82E811140
:1055800023C00115110539F0F80180819181C81BF4
:10559000D90BC80ED91EB12CA12C2097A9F080914F
:1055A000E80085FD22C08091E8008B778093E800B9
:1055B00001151105A1F0F80180819181A80EB91E95
:1055C000B182A08285E0F82E8F2DDF91CF911F91BF
:1055D0000F91FF90DF90CF90BF90AF9008950E9401
:1055E0000F2C8823D1F2F82EEFCF8091F100F60135
:1055F00081936F012197FFEFAF1ABF0ACECFFC0155
:105600008091E6039091E70386179707A0F0611554
:10561000710529F49091E8009E779093E80090E05E
:105620006115710551F4911108C08091E80082FF65
:1056300034C080E00895BC01F2CF8091DF0388235D
:10564000C1F18530C1F18091E80083FD30C08091C7
:10565000E80082FDEACF8091E80080FFE1CF8091F1
:10566000F3002091F200382F6115710519F02830F0
:10567000310558F091E02830310509F090E0209193
:10568000E8002E772093E800CBCF81918093F10042
:10569000615071092F5F3F4FE7CF8091DF0388236F
:1056A00041F0853041F08091E80083FFBECF81E07A
:1056B000089582E0089583E00895FC018091E60357
:1056C0009091E70386179707A0F06115710529F4FB
:1056D0008091E8008E778093E80090E06115710575
:1056E00051F4911108C08091E80082FF35C080E03C
:1056F0000895BC01F2CF8091DF038823C9F1853082
:10570000C9F18091E80083FD31C08091E80082FDFD
:10571000EACF8091E80080FFE1CF8091F3002091F3
:10572000F200382F6115710519F02830310558F055
:1057300091E02830310509F090E08091E8008E7703
:105740008093E800CBCF84918093F1003196615033
:1057500071092F5F3F4FE6CF8091DF03882341F02F
:10576000853041F08091E80083FFBDCF81E008954E
:1057700082E0089583E00895982F973028F08F7085
:105780008093E90081E008959093E900242F762F1B
:1057900050E0981731F07091EC002091ED0050919D
:1057A000F00021FD02C09F5FE8CF3091EB003E7F0B
:1057B0003093EB003091ED003D7F3093ED00309160
:1057C000EB0031603093EB007093EC002093ED0020
:1057D0005093F0002091EE0027FDE5CF80E0089582
:1057E0008091E00387FF13C08091E80082FF06C02C
:1057F0008091E8008B778093E80004C08091DF03FC
:105800008111F2CF08958091DF038823D9F380912D
:10581000E80080FFF8CF8091E8008E77ECCF2091F0
:10582000E4003091E50095E6A9012091EC00822F7B
:10583000817020FF06C08091E80080FF06C080E0F4
:1058400008952091E80022FD1AC08091DF0388238B
:1058500089F0853089F08091EB0085FD0FC02091A3
:10586000E4003091E50042175307F9F29150E1F658
:1058700084E0089582E0089583E0089581E008952A
:105880000E94AE2C0E94B62CE0EEF0E08081816098
:105890008083E8EDF0E080818F77808319BCA7EDED
:1058A000B0E08C918E7F8C9380818F7E808310926C
:1058B000DE0308950F931F93CF93DF930E94AE2CC6
:1058C0000E94B62CC8EDD0E088818F7788838881CC
:1058D0008068888388818F7D888319BC1092DF035C
:1058E0001092DB031092DD031092DC0300EE10E057
:1058F000F80180818B7F808388818160888342E08A
:1059000060E080E00E94BC2BE1EEF0E080818E7FC1
:105910008083E2EEF0E08081816080838081886016
:105920008083F80180818E7F808388818061888375
:10593000DF91CF911F910F910895E8EDF0E0808104
:105940008F7E8083E7EDF0E080818160808384E05A
:1059500082BF81E08093DE030C945A2CE8EDF0E0E6
:1059600080818E7F80831092E20008951092DA0089
:105970001092E10008951F920F920FB60F9211241A
:105980002F933F934F935F936F937F938F939F9347
:10599000AF93BF93EF93FF938091E10082FF0BC021
:1059A0008091E20082FF07C08091E1008B7F8093AD
:1059B000E1000E94252F8091DA0080FF19C08091BC
:1059C000D80080FF15C08091DA008E7F8093DA00C6
:1059D0008091D90080FF96C080E189BD82E189BDB8
:1059E00009B400FEFDCF81E08093DF030E94AD2863
:1059F0008091E10080FF19C08091E20080FF15C016
:105A00008091E2008E7F8093E2008091E2008061CD
:105A10008093E2008091D80080628093D80019BC06
:105A200085E08093DF030E94BF288091E10084FF1E
:105A30002BC08091E20084FF27C080E189BD82E114
:105A400089BD89B5982F917080FFFBCF8091D800D8
:105A50008F7D8093D8008091E1008F7E8093E1005C
:105A60008091E2008F7E8093E2008091E20081606D
:105A70008093E2008091DB03882309F449C084E02D
:105A80008093DF030E94C0288091E10083FF29C03A
:105A90008091E20083FF25C08091E100877F8093A1
:105AA000E10082E08093DF031092DB038091E1004C
:105AB0008E7F8093E1008091E2008E7F8093E200F0
:105AC0008091E20080618093E20042E060E080E04B
:105AD0000E94BC2B8091F00088608093F0000E94AF
